:020000040800F2
:10000000780500203D0100085D0B00085B0B00082F
:1000100000000000000000000000000000000000E0
:10002000000000000000000000000000A50B000818
:100030000000000000000000FB000008A90B000801
:100040004F010008000000004F0100084F010008A8
:100050004F0100084F0100084F0100084F01000840
:10006000000000004F0100084F0100084F01000888
:100070004F0100084F0100084F0100080000000078
:100080004F01000800000000000000004F010008C0
:10009000000000004F010008750C00084F01000827
:1000A000000000004F010008000000004F010008A0
:1000B0000348854600F078F8004800471D0D000809
:1000C00078050020084B19680868203080F30988FB
:1000D000022080F31488BFF36F8F3FBCAE4608BC8C
:1000E00004BC62B61847000008000020EFF310803F
:1000F00072B6704780F310887047EFF309800E4B9B
:100100001A6820381060F0C044464D4656465F4697
:10011000F0C008B572B600F0E9FE62B60CBC11681A
:1001200008681030F0C8A046A946B246BB4680F326
:1001300009882038F0C81847080000200448804784
:1001400004480047FEE7FEE7FEE7FEE7FEE7FEE7BE
:10015000190C0008B100000830B50B46014600201C
:100160002022012409E00D46D5409D4205D31D46BD
:100170009540491B2546954040191546521E002DB5
:10018000F1DC30BDD2B201E00270401C491EFBD24E
:1001900070470022F6E710B513460A460446194692
:1001A000FFF7F0FF204610BD064C0125064E05E086
:1001B000E36807CC2B430C3C98471034B442F7D388
:1001C000FFF77AFF181000083810000831B500F06A
:1001D000B5F8009C0546601C00D0641C00F0AEF829
:1001E000401BA042FAD338BDF8B500238DE00124AE
:1001F0009C40A44622407DD04C68022C01D0122C99
:100200000CD1DC08A40027183C6A5D07ED0E0F2610
:10021000AE40B4430E69AE4026433E6205685E00C0
:100220000324B4400F79A543BF07BF0FB7402F4346
:1002300007604D68012D05D0022D03D0112D01D08E
:10024000122D0ED18568CF68A543B7402F43876034
:1002500047686546AF430D79ED06ED0F9D403D4380
:100260004560C568A5438C68B4402C43C4604C68A5
:10027000E40049D5284CA56901263543A561A46948
:100280009D0834400094254CAD002F19BC689D0793
:100290002E0F0F25B540AC430925ED06A84201D12C
:1002A00000250FE01E4DA84201D101250AE01D4D99
:1002B000A84201D1022505E01B4DA84201D103252A
:1002C00000E00525B5402543BD60184C25684E6803
:1002D0009543F60300D51543256065684E68954340
:1002E000B60300D515436560A5684E689543F602D0
:1002F00002D500E008E01543A560E5684E68954327
:10030000B60200D51543E5605B1C0A681446DC4064
:1003100000D06CE7F8BD0000001002400000014072
:100320000004004800080048000C00480004014098
:10033000002A01D0816170478162704701480068DE
:10034000704700000000002002480168491C01605D
:10035000704700000000002010B506480168102218
:1003600011430160002000F007F800F041F8002080
:1003700010BD00000020024000B5014687B00022F9
:10038000162000F057F8162000F04AF8134882694A
:10039000012189040A43826180690840059004A90B
:1003A000684600F0E1F800F0FBF80D49FFF7D4FED5
:1003B0000D490C4A0A600D4A401ECA604860002080
:1003C00008618860084600F0E3FA002802D00120A6
:1003D00007B000BD044800F0F6FAF9E7001002404B
:1003E00040420F000048014044000020E7030000A5
:1003F00008B50A4881690122114381618169114070
:100400000091C26901040A43C261C0690022084028
:1004100003210090481F00F00DF808BD00100240B5
:10042000C106C90E012088400149086070470000DC
:1004300000E100E010B500F093FB10BDF8B50546F3
:1004400044480E460068C007C00FB0420AD2414877
:10045000016849084900314301600068C007C00FC6
:10046000B0425CD128783C4C800705D56068F0210B
:100470008843A968084360602878C0073FD068684F
:10048000012813D02168022813D08907002946DAF1
:1004900061688908890001436160FFF74FFF69685F
:1004A000074601290DD0022917D024E021688903CD
:1004B000ECE78901EAE7FFF741FFC11B27488142CA
:1004C00017D860680007800F0128F4D117E0FFF704
:1004D00035FFC11B214881420BD860680007800F9F
:1004E0000228F4D10BE0FFF729FFC11B1B48814212
:1004F00001D90320F8BD60680007800FF3D11548CB
:100500000168C907C90FB1420BD901684908490000
:10051000314301600068C007C00FB04201D0012024
:10052000F8BD2878400706D560680721090288438E
:10053000E9680843606000F043F86168084A09060A
:10054000090F515CC840074908600020FFF714FFFD
:100550000020F8BD00200240001002408813000077
:10056000001000080400002010B5072202600A4AAB
:1005700053689B079B0F43605368F02423408360BC
:10058000526807231B021A40C26004480068C00773
:10059000C00F086010BD00000010024000200240A3
:1005A0000448054900684968044A4905490F515CF7
:1005B000C8407047040000200010024010100008DE
:1005C00010B512A30FCB88B06C460FC413A30FCB8A
:1005D0000FC416494A680C20134603401448042BE4
:1005E0000FD0082B0DD193021B0F6C46E45CC96A37
:1005F00004AB0907090F595CD20304D5FFF7ACFD22
:10060000604308B010BD0B486043FAE702030405DD
:10061000060708090A0B0C0D0E0F10100102030447
:1006200005060708090A0B0C0D0E0F1000100240FA
:1006300000127A0000093D00FEB504460078D04D56
:10064000C00747D068680007800F012807D0686896
:100650000007800F022809D16868C00306D5286802
:10066000800337D5606800287ED033E001206268BF
:100670000004012A11D08100002A01D0052A10D0DF
:100680002A6882432A6028688843286060680028B6
:1006900014D0FFF753FE06460CE029680143296099
:1006A000F4E72A680A432A60F7E7FFF747FE801B52
:1006B00064286FD828688003F7D50BE0FFF73EFE6B
:1006C000064604E0FFF73AFE801B6428F1D828684C
:1006D0008003F7D420780126800700283BDA686879
:1006E0000007800F07D068680007800F022809D133
:1006F0006868C00306D42868800715D5E06801281B
:1007000032D111E0E0680028286815D03043286015
:10071000FFF714FE074604E0FFF710FEC01B022897
:10072000C7D828688007F7D52868F8218843216949
:10073000C900084328600EE0400840002860FFF729
:10074000FDFD074604E0FFF7F9FDC01B0228B0D805
:1007500028688007F7D42078000724D5E0690028AE
:10076000686A10D0304300E008E16862FFF7E6FDF8
:10077000074604E0FFF7E2FDC01B022899D8686A2B
:100780008007F7D50FE0400840006862FFF7D6FD0C
:10079000074605E09DE0FFF7D1FDC01B022888D881
:1007A000686A8007F7D4207804274007002860DAB9
:1007B00000200190E869C00008D4E969B806014347
:1007C000E961E96901400120009101906D480168EB
:1007D000C90511D40168821511430160FFF7AEFD10
:1007E000009005E0FFF7AAFD0099401A642870D830
:1007F00064480068C005F5D5A06801280AD0002823
:1008000001D0052810D0286A400840002862286AD4
:10081000B84301E0286A30432862A068002812D05B
:10082000FFF78CFD00900AE0286A38432862F1E760
:10083000FFF784FD0099411A5348814249D8286A3C
:100840008007F5D50DE0FFF779FD009006E0FFF792
:1008500075FD0099411A4C4881423AD8286A8007B0
:10086000F5D40198002804D0E969012000078143EC
:10087000E9612078C00635D5606901280CD0401D9B
:10088000686B23D038436863686B40084000686336
:10089000FFF754FD064622E0686B38436863686BD7
:1008A00030436863FFF74AFD064604E0FFF746FD64
:1008B000801B02285BD8686B8007F7D5686BF8212E
:1008C0008843A169C900084368630BE0B8436863C3
:1008D000F4E74CE0FFF732FD801B022847D8686B35
:1008E0008007F7D4206A002846D069680907890F75
:1008F000022943D0012636060228286805D0B043D5
:100900002860FFF71BFD044633E0B0432860FFF783
:1009100015FD074604E0FFF711FDC01B022826D88D
:1009200028688001F7D4E86AE16A000900010843F9
:10093000E862616AA06A084369683D221204914333
:1009400008436860286830432860FFF7F7FC0446D6
:1009500004E0FFF7F3FC001B022808D82868800198
:10096000F7D509E0FFF7EAFC001B022801D90320B4
:10097000FEBD28688001F5D40020FEBD0120FEBD2B
:10098000001002400070004088130000704770475C
:1009900070B5040005D025462035687F002802D0B8
:1009A00006E0012070BD00202877204600F00AF8FC
:1009B00002206877211D206800F064F90120687723
:1009C000002070BD70470268D36801210B43D360DB
:1009D000006802680A43026000207047704770B5E3
:1009E0000446006801690025C9438907002915DB11
:1009F000C168C943890711D4E91E0161012020772C
:100A0000206880698007204602D0FFF7E7FF04E0F6
:100A100000F096F8204600F094F8257720680169E8
:100A2000C943490717D4C168C943490713D40421EE
:100A3000C943016102202077206880698005800F0A
:100A4000204602D0FFF7CAFF04E000F079F8204604
:100A500000F077F8257720680169C943090716D4A3
:100A6000C168C943090712D40821C94301610420A0
:100A700020772068C0698007204602D0FFF7AEFFCC
:100A800004E000F05DF8204600F05BF82577206870
:100A90000169C943C90617D4C168C943C90613D43B
:100AA0001021C9430161082020772068C0698005B2
:100AB000800F204602D0FFF791FF04E000F040F8DD
:100AC000204600F03EF8257720680169C943C90730
:100AD00008D1C168C943C90704D1891E01612046F4
:100AE00000F030F820680169C943090609D4C168DB
:100AF000C943090605D48021C94301612046FFF797
:100B000045FF20680169C943490609D4C168C94342
:100B1000490605D44021C9430161204600F01CF874
:100B200020680169C943890609D4C168C943890697
:100B300005D42021C94301612046FFF728FF70BD7D
:100B40007047704710B500680249884201D1FFF72D
:100B5000FBFB10BD004801407047FEE770470000F6
:100B60008307FF22DB0E9A408907090E994000286F
:100B70000BDA0007000F0838830808489B00181894
:100B8000C36993430B43C3617047830804489B00C8
:100B90001B181868904308431860704700ED00E088
:100BA00000E400E07047000010B5FFF79FFA04462C
:100BB00000F0C8F9002803D001200349000748606D
:100BC0002046FFF797FA10BD00ED00E030B591B078
:100BD00030216846FFF7DDFA00240D9401200390D0
:100BE0000E940225102009940490009505200F947E
:100BF000C0040A900C9408950B946846FFF71CFDFE
:100C000007200C900E9401210D950F940CA8FFF76E
:100C100015FC11B030BD00001348016801221143DA
:100C200001604168114A114041600168104A114059
:100C300001600168012292049143016041683F22F2
:100C4000120491434160C16A09090901C162016B43
:100C5000FF22143291430163416B4908490041630B
:100C60000021816070470000001002400CB8FF08AE
:100C7000FFFFF6FE10B50248FFF7B1FE10BD000001
:100C80004400002070B50268174B184E984201D0FE
:100C9000B04203D17024A2434C682243144C154D3A
:100CA000984208D0B04206D0134EB04203D0A042C2
:100CB00001D0A84204D103263602B243CE683243A3
:100CC0008026B2434E69324302608A68C2620A6873
:100CD0008262984203D0A04201D0A84201D10969A2
:100CE00001630121416170BD002C014000040040FE
:100CF00000440140004801400020004002E008C8D4
:100D0000121F08C1002AFAD170477047002001E085
:100D100001C1121F002AFBD17047000086B0FFF707
:100D20001BFBFFF753FF14216846FFF732FA5548C3
:100D30004269012189040A4342614069524D0840D9
:100D400005900022E0212846FFF7F2FAE02000900B
:100D50000120019000200290039069462846FFF789
:100D600043FA012280212846FFF7E2FA01224021BE
:100D70002846FFF7DDFA012220212846FFF7D8FA9E
:100D8000424F00247E100120641CFFF71FFABC4272
:100D900001DD002401E0B44201DA012202E0B442A4
:100DA00004DD002220212846FFF7C2FA322C04DAA3
:100DB000012280212846FFF7BBFA2046333831282C
:100DC00004D2002280212846FFF7B2FA2046653877
:100DD000312804D2012280212846FFF7A9FA2046B3
:100DE0009738312804D2002280212846FFF7A0FA44
:100DF0002046C938312804D2012280212846FFF735
:100E000097FA2046FB38312804D200228021284658
:100E1000FFF78EFA2046FF382E38312804D20122FF
:100E200080212846FFF784FA2046FF3860383128B1
:100E300009D2002280212846FFF77AFA0122802178
:100E40002846FFF775FA2046FF389238312804D239
:100E5000002280212846FFF76BFA2046FF38C4386D
:100E6000312804D2012280212846FFF761FA20466A
:100E7000FF38F638112886D2002280212846FFF755
:100E800057FA80E700100240000400480602000004
:100E90000648416B0968002905D0416BC968C968DB
:100EA0004968816270470021C943FAE708000020C1
:100EB0004368826801699A60836842685A604A6838
:100EC000824201D182684A60002202610868401EA5
:100ED0000860704742684A6093688B609368596005
:100EE000916008610168491C0160704710B51348A2
:100EF000016B002902D00121C16110BD0021C16137
:100F000001690F4A02E0002915D0491E14234B4302
:100F1000D358002BF7D014234B439A185368144628
:100F20005B6808345360A34201D15B685360DA68A0
:100F30000260016110BD72B6FEE7000008000020EB
:100F400084000020F8B52C4C0027206B002808D026
:100F5000A069401CA061E069002800D00127384644
:100F6000F8BDE668761CE6600ED1606B006800286C
:100F700001D072B6FEE7606BA16B6163A063206A6B
:100F8000401C2062FFF784FFA06A86420AD3606B90
:100F90000068002810D0606BC068C5686868864229
:100FA0000DD2A06220681421C06A48431349085832
:100FB0000128D0D90127CEE70020C043F1E7281D42
:100FC000FFF776FFA86A002803D028461830FFF7FD
:100FD0006FFFE86A2169884200D9206114214843E3
:100FE00006494018291DFFF775FFE86A2168C96A9C
:100FF0008842CCD30127CAE70800002084000020E3
:1010000000000000000000000102030406070809B8
:101010000000000001020304381000080000002056
:1010200044000000FC0C00087C1000084400002074
:10103000340500000C0D00080000000000127A00CA
:1010400000000000000000000000000000000000A0
:101050000000000000000000000000000000000090
:101060000000000000000000000000000000000080
:0C10700000000000000000000000000074
:04000005080000B13E
:00000001FF
